{
  "contractName": "GroupManager",
  "abi": [
    {
      "inputs": [],
      "stateMutability": "nonpayable",
      "type": "constructor"
    },
    {
      "anonymous": false,
      "inputs": [
        {
          "indexed": false,
          "internalType": "uint32",
          "name": "groupID",
          "type": "uint32"
        },
        {
          "indexed": false,
          "internalType": "address",
          "name": "from",
          "type": "address"
        }
      ],
      "name": "alreadyJoined",
      "type": "event"
    },
    {
      "anonymous": false,
      "inputs": [
        {
          "indexed": false,
          "internalType": "uint32",
          "name": "groupID",
          "type": "uint32"
        },
        {
          "indexed": false,
          "internalType": "address",
          "name": "from",
          "type": "address"
        }
      ],
      "name": "notMember",
      "type": "event"
    },
    {
      "anonymous": false,
      "inputs": [],
      "name": "outOfLimit",
      "type": "event"
    },
    {
      "inputs": [],
      "name": "createGroup",
      "outputs": [
        {
          "internalType": "uint32",
          "name": "",
          "type": "uint32"
        }
      ],
      "stateMutability": "nonpayable",
      "type": "function"
    },
    {
      "inputs": [
        {
          "internalType": "uint32",
          "name": "groupID",
          "type": "uint32"
        }
      ],
      "name": "deposit",
      "outputs": [],
      "stateMutability": "payable",
      "type": "function",
      "payable": true
    },
    {
      "inputs": [
        {
          "internalType": "uint32",
          "name": "groupID",
          "type": "uint32"
        }
      ],
      "name": "withdraw",
      "outputs": [
        {
          "internalType": "uint256",
          "name": "balance",
          "type": "uint256"
        }
      ],
      "stateMutability": "payable",
      "type": "function",
      "payable": true
    },
    {
      "inputs": [
        {
          "internalType": "uint32",
          "name": "groupID",
          "type": "uint32"
        }
      ],
      "name": "joinGroup",
      "outputs": [
        {
          "internalType": "bool",
          "name": "",
          "type": "bool"
        }
      ],
      "stateMutability": "nonpayable",
      "type": "function"
    },
    {
      "inputs": [],
      "name": "getGroupID",
      "outputs": [
        {
          "internalType": "uint32[10]",
          "name": "groups",
          "type": "uint32[10]"
        }
      ],
      "stateMutability": "view",
      "type": "function",
      "constant": true
    },
    {
      "inputs": [
        {
          "internalType": "uint32",
          "name": "groupID",
          "type": "uint32"
        }
      ],
      "name": "getGroupMembers",
      "outputs": [
        {
          "internalType": "address[10]",
          "name": "members",
          "type": "address[10]"
        }
      ],
      "stateMutability": "view",
      "type": "function",
      "constant": true
    },
    {
      "inputs": [
        {
          "internalType": "uint32",
          "name": "groupID",
          "type": "uint32"
        }
      ],
      "name": "getGroupBalance",
      "outputs": [
        {
          "internalType": "uint256",
          "name": "balance",
          "type": "uint256"
        }
      ],
      "stateMutability": "view",
      "type": "function",
      "constant": true
    }
  ],
  "bytecode": "0x60806040526001600360146101000a81548163ffffffff021916908363ffffffff16021790555034801561003257600080fd5b5033600360006101000a81548173ffffffffffffffffffffffffffffffffffffffff021916908373ffffffffffffffffffffffffffffffffffffffff1602179055506111e1806100836000396000f3fe6080604052600436106100705760003560e01c8063aa9224cd1161004e578063aa9224cd14610108578063b7e8bc9914610138578063ec976a0a14610154578063eec932f71461019157610070565b80634132d14914610075578063575185ed146100b25780637062f1c9146100dd575b600080fd5b34801561008157600080fd5b5061009c60048036038101906100979190610d60565b6101ce565b6040516100a99190610da6565b60405180910390f35b3480156100be57600080fd5b506100c76101f7565b6040516100d49190610dd0565b60405180910390f35b3480156100e957600080fd5b506100f2610436565b6040516100ff9190610e96565b60405180910390f35b610122600480360381019061011d9190610d60565b6104e9565b60405161012f9190610da6565b60405180910390f35b610152600480360381019061014d9190610d60565b6106e7565b005b34801561016057600080fd5b5061017b60048036038101906101769190610d60565b61072d565b6040516101889190610f8f565b60405180910390f35b34801561019d57600080fd5b506101b860048036038101906101b39190610d60565b610859565b6040516101c59190610fc6565b60405180910390f35b6000600260008363ffffffff1663ffffffff168152602001908152602001600020549050919050565b600080600090505b600a8160ff16101561029b5760008060003373ffffffffffffffffffffffffffffffffffffffff1673ffffffffffffffffffffffffffffffffffffffff1681526020019081526020016000208260ff16600a81106102605761025f610fe1565b5b600891828204019190066004029054906101000a900463ffffffff1663ffffffff16031561029b5780806102939061104c565b9150506101ff565b600a8160ff16036102dc577f2fc31b0c2f294ab6ff7c8d21231dd6c1cf332cfa560af4a81b55fb3922eef2c160405160405180910390a16000915050610433565b600360149054906101000a900463ffffffff166000803373ffffffffffffffffffffffffffffffffffffffff1673ffffffffffffffffffffffffffffffffffffffff1681526020019081526020016000208260ff16600a811061034257610341610fe1565b5b600891828204019190066004026101000a81548163ffffffff021916908363ffffffff1602179055503360016000600360149054906101000a900463ffffffff1663ffffffff1663ffffffff1681526020019081526020016000206000600a81106103b0576103af610fe1565b5b0160006101000a81548173ffffffffffffffffffffffffffffffffffffffff021916908373ffffffffffffffffffffffffffffffffffffffff1602179055506003601481819054906101000a900463ffffffff168092919061041190611075565b91906101000a81548163ffffffff021916908363ffffffff1602179055509150505b90565b61043e610cd9565b6000803373ffffffffffffffffffffffffffffffffffffffff1673ffffffffffffffffffffffffffffffffffffffff168152602001908152602001600020600a806020026040519081016040528092919082600a80156104df576020028201916000905b82829054906101000a900463ffffffff1663ffffffff16815260200190600401906020826003010492830192600103820291508084116104a25790505b5050505050905090565b600034600260008463ffffffff1663ffffffff16815260200190815260200160002054101561051757600080fd5b3373ffffffffffffffffffffffffffffffffffffffff163273ffffffffffffffffffffffffffffffffffffffff161461054f57600080fd5b60005b600a8160ff1610156105f3578263ffffffff166000803373ffffffffffffffffffffffffffffffffffffffff1673ffffffffffffffffffffffffffffffffffffffff1681526020019081526020016000208260ff16600a81106105b8576105b7610fe1565b5b600891828204019190066004029054906101000a900463ffffffff1663ffffffff1603156105f35780806105eb9061104c565b915050610552565b600a8160ff1603610641577fe56238e5a676b3faf5d6ffafdc64077d7ac7d29f7e8eafda690dcb69924638cd833360405161062f9291906110b0565b60405180910390a160009150506106e2565b34600260008563ffffffff1663ffffffff168152602001908152602001600020600082825461067091906110d9565b925050819055503373ffffffffffffffffffffffffffffffffffffffff166108fc349081150290604051600060405180830381858888f193505050501580156106bd573d6000803e3d6000fd5b50600260008463ffffffff1663ffffffff168152602001908152602001600020549150505b919050565b600034116106f457600080fd5b34600260008363ffffffff1663ffffffff1681526020019081526020016000206000828254610723919061110d565b9250508190555050565b610735610cfc565b600073ffffffffffffffffffffffffffffffffffffffff16600160008463ffffffff1663ffffffff1681526020019081526020016000206000600a811061077f5761077e610fe1565b5b0160009054906101000a900473ffffffffffffffffffffffffffffffffffffffff1673ffffffffffffffffffffffffffffffffffffffff16036107c157600080fd5b600160008363ffffffff1663ffffffff168152602001908152602001600020600a806020026040519081016040528092919082600a801561084d576020028201915b8160009054906101000a900473ffffffffffffffffffffffffffffffffffffffff1673ffffffffffffffffffffffffffffffffffffffff1681526020019060010190808311610803575b50505050509050919050565b600080610864610ad7565b9050600a8160ff16036108a7577f2fc31b0c2f294ab6ff7c8d21231dd6c1cf332cfa560af4a81b55fb3922eef2c160405160405180910390a16000915050610ad2565b6108b083610b82565b156108f8577f53a1323e0544dc8ba7fda50a829b1fb96fba5186ede577fb91162482115293bd83336040516108e69291906110b0565b60405180910390a16000915050610ad2565b60005b600a81101561099e57600073ffffffffffffffffffffffffffffffffffffffff16600160008663ffffffff1663ffffffff16815260200190815260200160002082600a811061094d5761094c610fe1565b5b0160009054906101000a900473ffffffffffffffffffffffffffffffffffffffff1673ffffffffffffffffffffffffffffffffffffffff16031561099e57808061099690611163565b9150506108fb565b600a81036109dd577f2fc31b0c2f294ab6ff7c8d21231dd6c1cf332cfa560af4a81b55fb3922eef2c160405160405180910390a1600092505050610ad2565b33600160008663ffffffff1663ffffffff16815260200190815260200160002082600a8110610a0f57610a0e610fe1565b5b0160006101000a81548173ffffffffffffffffffffffffffffffffffffffff021916908373ffffffffffffffffffffffffffffffffffffffff160217905550836000803373ffffffffffffffffffffffffffffffffffffffff1673ffffffffffffffffffffffffffffffffffffffff1681526020019081526020016000208360ff16600a8110610aa257610aa1610fe1565b5b600891828204019190066004026101000a81548163ffffffff021916908363ffffffff1602179055506001925050505b919050565b600080600090505b600a8160ff161015610b7b5760008060003373ffffffffffffffffffffffffffffffffffffffff1673ffffffffffffffffffffffffffffffffffffffff1681526020019081526020016000208260ff16600a8110610b4057610b3f610fe1565b5b600891828204019190066004029054906101000a900463ffffffff1663ffffffff160315610b7b578080610b739061104c565b915050610adf565b8091505090565b600080600090505b600a8160ff161015610cce573373ffffffffffffffffffffffffffffffffffffffff16600160008563ffffffff1663ffffffff1681526020019081526020016000208260ff16600a8110610be157610be0610fe1565b5b0160009054906101000a900473ffffffffffffffffffffffffffffffffffffffff1673ffffffffffffffffffffffffffffffffffffffff1603610c28576001915050610cd4565b600073ffffffffffffffffffffffffffffffffffffffff16600160008563ffffffff1663ffffffff1681526020019081526020016000208260ff16600a8110610c7457610c73610fe1565b5b0160009054906101000a900473ffffffffffffffffffffffffffffffffffffffff1673ffffffffffffffffffffffffffffffffffffffff1603610cbb576000915050610cd4565b8080610cc69061104c565b915050610b8a565b60009150505b919050565b604051806101400160405280600a90602082028036833780820191505090505090565b604051806101400160405280600a90602082028036833780820191505090505090565b600080fd5b600063ffffffff82169050919050565b610d3d81610d24565b8114610d4857600080fd5b50565b600081359050610d5a81610d34565b92915050565b600060208284031215610d7657610d75610d1f565b5b6000610d8484828501610d4b565b91505092915050565b6000819050919050565b610da081610d8d565b82525050565b6000602082019050610dbb6000830184610d97565b92915050565b610dca81610d24565b82525050565b6000602082019050610de56000830184610dc1565b92915050565b6000600a9050919050565b600081905092915050565b6000819050919050565b610e1481610d24565b82525050565b6000610e268383610e0b565b60208301905092915050565b6000602082019050919050565b610e4881610deb565b610e528184610df6565b9250610e5d82610e01565b8060005b83811015610e8e578151610e758782610e1a565b9650610e8083610e32565b925050600181019050610e61565b505050505050565b600061014082019050610eac6000830184610e3f565b92915050565b6000600a9050919050565b600081905092915050565b6000819050919050565b600073ffffffffffffffffffffffffffffffffffffffff82169050919050565b6000610efd82610ed2565b9050919050565b610f0d81610ef2565b82525050565b6000610f1f8383610f04565b60208301905092915050565b6000602082019050919050565b610f4181610eb2565b610f4b8184610ebd565b9250610f5682610ec8565b8060005b83811015610f87578151610f6e8782610f13565b9650610f7983610f2b565b925050600181019050610f5a565b505050505050565b600061014082019050610fa56000830184610f38565b92915050565b60008115159050919050565b610fc081610fab565b82525050565b6000602082019050610fdb6000830184610fb7565b92915050565b7f4e487b7100000000000000000000000000000000000000000000000000000000600052603260045260246000fd5b7f4e487b7100000000000000000000000000000000000000000000000000000000600052601160045260246000fd5b600060ff82169050919050565b60006110578261103f565b915060ff820361106a57611069611010565b5b600182019050919050565b600061108082610d24565b915063ffffffff820361109657611095611010565b5b600182019050919050565b6110aa81610ef2565b82525050565b60006040820190506110c56000830185610dc1565b6110d260208301846110a1565b9392505050565b60006110e482610d8d565b91506110ef83610d8d565b92508282101561110257611101611010565b5b828203905092915050565b600061111882610d8d565b915061112383610d8d565b9250827fffffffffffffffffffffffffffffffffffffffffffffffffffffffffffffffff0382111561115857611157611010565b5b828201905092915050565b600061116e82610d8d565b91507fffffffffffffffffffffffffffffffffffffffffffffffffffffffffffffffff82036111a05761119f611010565b5b60018201905091905056fea2646970667358221220812f576068c9e1942776ce8dbdf766e3602b03c518bc394334f2f2fc7f150cca64736f6c634300080d0033",
  "immutableReferences": {},
  "source": "pragma solidity ^0.8.0;\r\n\r\ncontract GroupManager {\r\n    mapping(address=>uint32[10]) private addressToGroup; //    \r\n    mapping(uint32=>address[10]) private groupToMembers; //    \r\n    mapping(uint32=>uint) private groupToBalance; // () \r\n    address private owner; //  \r\n    uint32 private groupCount = 1; //   \r\n\r\n    event outOfLimit(); //      \r\n    event notMember(uint32 groupID, address from); // groupID      \r\n    event alreadyJoined(uint32 groupID, address from); //      \r\n\r\n    constructor() {\r\n        owner = msg.sender;\r\n    }\r\n\r\n    modifier ownerOnly {\r\n        require(msg.sender == owner);\r\n        _;\r\n    }\r\n\r\n    function createGroup() public returns (uint32) {\r\n        uint8 i;\r\n\r\n        //      \r\n        for (i=0; i<10; i++){\r\n            if (addressToGroup[msg.sender][i] == 0) break;\r\n        }\r\n\r\n        //   (10)    outOfLimit  \r\n        if(i==10) {\r\n            emit outOfLimit();\r\n            return 0;\r\n        }\r\n\r\n        //      (   )\r\n        addressToGroup[msg.sender][i] = groupCount;\r\n        //      msg.sender \r\n        groupToMembers[groupCount][0] = msg.sender;\r\n        return groupCount++;\r\n    }\r\n\r\n    function deposit(uint32 groupID) payable public {\r\n        require(msg.value > 0);\r\n        groupToBalance[groupID] += msg.value;\r\n    }\r\n\r\n    function withdraw(uint32 groupID) payable public returns(uint balance){\r\n        //   \r\n        require(groupToBalance[groupID] >= msg.value);\r\n        //     \r\n        require(tx.origin == msg.sender);\r\n        // msg.sender   \r\n        uint8 i;\r\n        for (i=0; i<10; i++){\r\n            if(addressToGroup[msg.sender][i] == groupID) break;\r\n        }\r\n        //    ,  revert\r\n        if (i==10){\r\n            emit notMember(groupID, msg.sender);\r\n            return 0;\r\n        }\r\n        //   msg.value  \r\n        groupToBalance[groupID] -= msg.value;\r\n        // msg.sender msv.value  \r\n        payable(msg.sender).transfer(msg.value);\r\n        return groupToBalance[groupID];\r\n    }\r\n\r\n    function joinGroup(uint32 groupID) public returns(bool) {\r\n        //       \r\n        uint8 senderGroupCount = canJoinOtherGroup();\r\n\r\n        //         ,  \r\n        if(senderGroupCount == 10) {\r\n            emit outOfLimit();\r\n            return false;\r\n        }\r\n        //       \r\n        if(isAlreadyJoined(groupID)){\r\n            emit alreadyJoined(groupID, msg.sender);\r\n            return false;\r\n        }\r\n\r\n        //     \r\n        uint i;\r\n        for(i=0; i<10; i++){\r\n            if(groupToMembers[groupID][i] == address(0)) break;\r\n        }\r\n\r\n        //    \r\n        if(i==10) {\r\n            emit outOfLimit();\r\n            return false;\r\n        }\r\n\r\n        //   msg.sender   msg.sender   \r\n        groupToMembers[groupID][i] = msg.sender;\r\n        addressToGroup[msg.sender][senderGroupCount] = groupID;\r\n        return true;\r\n    }\r\n\r\n    function canJoinOtherGroup() private returns(uint8){\r\n        uint8 i;\r\n\r\n        //       \r\n        for (i=0; i<10; i++){\r\n            if (addressToGroup[msg.sender][i] == 0) break;\r\n        }\r\n\r\n        return i;\r\n    }\r\n\r\n    function isAlreadyJoined(uint32 groupID) private returns(bool){\r\n        uint8 i;\r\n\r\n        //       \r\n        for (i=0; i<10; i++){\r\n            if (groupToMembers[groupID][i] == msg.sender) return true;\r\n            else if (groupToMembers[groupID][i] == address(0)) return false;\r\n        }\r\n        return false;\r\n    }\r\n\r\n    function getGroupID() public view returns(uint32[10] memory groups) {\r\n        return addressToGroup[msg.sender];\r\n    }\r\n\r\n    function getGroupMembers(uint32 groupID) public view returns(address[10] memory members){\r\n        require(groupToMembers[groupID][0] != address(0));\r\n        return groupToMembers[groupID];\r\n    }\r\n\r\n    function getGroupBalance(uint32 groupID) public view returns(uint balance){\r\n        return groupToBalance[groupID];\r\n    }\r\n}",
  "sourcePath": "D:\\Node.js Workspace\\korean-fund-raising\\contracts\\GroupManager.sol",
  "compiler": {
    "name": "solc",
    "version": "0.8.13+commit.abaa5c0e.Emscripten.clang"
  },
  "schemaVersion": "3.4.7",
  "updatedAt": "2022-05-22T08:45:54.362Z",
  "networkType": "ethereum",
  "devdoc": {
    "kind": "dev",
    "methods": {},
    "version": 1
  },
  "userdoc": {
    "kind": "user",
    "methods": {},
    "version": 1
  }
}