{
  "contractName": "GroupManager",
  "abi": [
    {
      "inputs": [],
      "stateMutability": "nonpayable",
      "type": "constructor"
    },
    {
      "anonymous": false,
      "inputs": [],
      "name": "outOfLimit",
      "type": "event"
    },
    {
      "inputs": [],
      "name": "createGroup",
      "outputs": [
        {
          "internalType": "uint32",
          "name": "",
          "type": "uint32"
        }
      ],
      "stateMutability": "nonpayable",
      "type": "function"
    },
    {
      "inputs": [
        {
          "internalType": "uint32",
          "name": "groupID",
          "type": "uint32"
        }
      ],
      "name": "deposit",
      "outputs": [],
      "stateMutability": "payable",
      "type": "function",
      "payable": true
    },
    {
      "inputs": [
        {
          "internalType": "uint32",
          "name": "groupID",
          "type": "uint32"
        }
      ],
      "name": "withdraw",
      "outputs": [
        {
          "internalType": "uint256",
          "name": "balance",
          "type": "uint256"
        }
      ],
      "stateMutability": "payable",
      "type": "function",
      "payable": true
    },
    {
      "inputs": [
        {
          "internalType": "uint32",
          "name": "groupID",
          "type": "uint32"
        }
      ],
      "name": "joinGroup",
      "outputs": [
        {
          "internalType": "bool",
          "name": "",
          "type": "bool"
        }
      ],
      "stateMutability": "nonpayable",
      "type": "function"
    },
    {
      "inputs": [],
      "name": "getGroupID",
      "outputs": [
        {
          "internalType": "uint32[10]",
          "name": "groups",
          "type": "uint32[10]"
        }
      ],
      "stateMutability": "view",
      "type": "function",
      "constant": true
    },
    {
      "inputs": [
        {
          "internalType": "uint32",
          "name": "groupID",
          "type": "uint32"
        }
      ],
      "name": "getGroupMembers",
      "outputs": [
        {
          "internalType": "address[10]",
          "name": "members",
          "type": "address[10]"
        }
      ],
      "stateMutability": "view",
      "type": "function",
      "constant": true
    }
  ],
  "bytecode": "0x60806040526001600360146101000a81548163ffffffff021916908363ffffffff16021790555034801561003257600080fd5b5033600360006101000a81548173ffffffffffffffffffffffffffffffffffffffff021916908373ffffffffffffffffffffffffffffffffffffffff160217905550610e38806100836000396000f3fe6080604052600436106100555760003560e01c8063575185ed1461005a5780637062f1c914610085578063aa9224cd146100b0578063b7e8bc99146100e0578063ec976a0a146100fc578063eec932f714610139575b600080fd5b34801561006657600080fd5b5061006f610176565b60405161007c91906109cd565b60405180910390f35b34801561009157600080fd5b5061009a6103c6565b6040516100a79190610a93565b60405180910390f35b6100ca60048036038101906100c59190610ae0565b610479565b6040516100d79190610b26565b60405180910390f35b6100fa60048036038101906100f59190610ae0565b610583565b005b34801561010857600080fd5b50610123600480360381019061011e9190610ae0565b6105c9565b6040516101309190610c1e565b60405180910390f35b34801561014557600080fd5b50610160600480360381019061015b9190610ae0565b610669565b60405161016d9190610c55565b60405180910390f35b6000806000905060005b600a8160ff16101561022a5760008060003373ffffffffffffffffffffffffffffffffffffffff1673ffffffffffffffffffffffffffffffffffffffff1681526020019081526020016000208260ff16600a81106101e1576101e0610c70565b5b600891828204019190066004029054906101000a900463ffffffff1663ffffffff16031561022a57818061021490610cdb565b925050808061022290610cdb565b915050610180565b50600a8160ff160361026c577f2fc31b0c2f294ab6ff7c8d21231dd6c1cf332cfa560af4a81b55fb3922eef2c160405160405180910390a160009150506103c3565b600360149054906101000a900463ffffffff166000803373ffffffffffffffffffffffffffffffffffffffff1673ffffffffffffffffffffffffffffffffffffffff1681526020019081526020016000208260ff16600a81106102d2576102d1610c70565b5b600891828204019190066004026101000a81548163ffffffff021916908363ffffffff1602179055503360016000600360149054906101000a900463ffffffff1663ffffffff1663ffffffff1681526020019081526020016000206000600a81106103405761033f610c70565b5b0160006101000a81548173ffffffffffffffffffffffffffffffffffffffff021916908373ffffffffffffffffffffffffffffffffffffffff1602179055506003601481819054906101000a900463ffffffff16809291906103a190610d04565b91906101000a81548163ffffffff021916908363ffffffff1602179055509150505b90565b6103ce610968565b6000803373ffffffffffffffffffffffffffffffffffffffff1673ffffffffffffffffffffffffffffffffffffffff168152602001908152602001600020600a806020026040519081016040528092919082600a801561046f576020028201916000905b82829054906101000a900463ffffffff1663ffffffff16815260200190600401906020826003010492830192600103820291508084116104325790505b5050505050905090565b600034600260008463ffffffff1663ffffffff1681526020019081526020016000205410156104a757600080fd5b3373ffffffffffffffffffffffffffffffffffffffff163273ffffffffffffffffffffffffffffffffffffffff16146104df57600080fd5b34600260008463ffffffff1663ffffffff168152602001908152602001600020600082825461050e9190610d30565b925050819055503373ffffffffffffffffffffffffffffffffffffffff166108fc349081150290604051600060405180830381858888f1935050505015801561055b573d6000803e3d6000fd5b50600260008363ffffffff1663ffffffff168152602001908152602001600020549050919050565b6000341161059057600080fd5b34600260008363ffffffff1663ffffffff16815260200190815260200160002060008282546105bf9190610d64565b9250508190555050565b6105d161098b565b600160008363ffffffff1663ffffffff168152602001908152602001600020600a806020026040519081016040528092919082600a801561065d576020028201915b8160009054906101000a900473ffffffffffffffffffffffffffffffffffffffff1673ffffffffffffffffffffffffffffffffffffffff1681526020019060010190808311610613575b50505050509050919050565b6000806106746108ac565b9050600a8160ff16036106b7577f2fc31b0c2f294ab6ff7c8d21231dd6c1cf332cfa560af4a81b55fb3922eef2c160405160405180910390a160009150506108a7565b6000805b600a81101561076c57600073ffffffffffffffffffffffffffffffffffffffff16600160008763ffffffff1663ffffffff16815260200190815260200160002082600a811061070d5761070c610c70565b5b0160009054906101000a900473ffffffffffffffffffffffffffffffffffffffff1673ffffffffffffffffffffffffffffffffffffffff16031561076c57818061075690610cdb565b925050808061076490610dba565b9150506106bb565b50600a8160ff16036107af577f2fc31b0c2f294ab6ff7c8d21231dd6c1cf332cfa560af4a81b55fb3922eef2c160405160405180910390a16000925050506108a7565b33600160008663ffffffff1663ffffffff1681526020019081526020016000208260ff16600a81106107e4576107e3610c70565b5b0160006101000a81548173ffffffffffffffffffffffffffffffffffffffff021916908373ffffffffffffffffffffffffffffffffffffffff160217905550836000803373ffffffffffffffffffffffffffffffffffffffff1673ffffffffffffffffffffffffffffffffffffffff1681526020019081526020016000208360ff16600a811061087757610876610c70565b5b600891828204019190066004026101000a81548163ffffffff021916908363ffffffff1602179055506001925050505b919050565b6000806000905060005b600a8160ff1610156109605760008060003373ffffffffffffffffffffffffffffffffffffffff1673ffffffffffffffffffffffffffffffffffffffff1681526020019081526020016000208260ff16600a811061091757610916610c70565b5b600891828204019190066004029054906101000a900463ffffffff1663ffffffff16031561096057818061094a90610cdb565b925050808061095890610cdb565b9150506108b6565b508091505090565b604051806101400160405280600a90602082028036833780820191505090505090565b604051806101400160405280600a90602082028036833780820191505090505090565b600063ffffffff82169050919050565b6109c7816109ae565b82525050565b60006020820190506109e260008301846109be565b92915050565b6000600a9050919050565b600081905092915050565b6000819050919050565b610a11816109ae565b82525050565b6000610a238383610a08565b60208301905092915050565b6000602082019050919050565b610a45816109e8565b610a4f81846109f3565b9250610a5a826109fe565b8060005b83811015610a8b578151610a728782610a17565b9650610a7d83610a2f565b925050600181019050610a5e565b505050505050565b600061014082019050610aa96000830184610a3c565b92915050565b600080fd5b610abd816109ae565b8114610ac857600080fd5b50565b600081359050610ada81610ab4565b92915050565b600060208284031215610af657610af5610aaf565b5b6000610b0484828501610acb565b91505092915050565b6000819050919050565b610b2081610b0d565b82525050565b6000602082019050610b3b6000830184610b17565b92915050565b6000600a9050919050565b600081905092915050565b6000819050919050565b600073ffffffffffffffffffffffffffffffffffffffff82169050919050565b6000610b8c82610b61565b9050919050565b610b9c81610b81565b82525050565b6000610bae8383610b93565b60208301905092915050565b6000602082019050919050565b610bd081610b41565b610bda8184610b4c565b9250610be582610b57565b8060005b83811015610c16578151610bfd8782610ba2565b9650610c0883610bba565b925050600181019050610be9565b505050505050565b600061014082019050610c346000830184610bc7565b92915050565b60008115159050919050565b610c4f81610c3a565b82525050565b6000602082019050610c6a6000830184610c46565b92915050565b7f4e487b7100000000000000000000000000000000000000000000000000000000600052603260045260246000fd5b7f4e487b7100000000000000000000000000000000000000000000000000000000600052601160045260246000fd5b600060ff82169050919050565b6000610ce682610cce565b915060ff8203610cf957610cf8610c9f565b5b600182019050919050565b6000610d0f826109ae565b915063ffffffff8203610d2557610d24610c9f565b5b600182019050919050565b6000610d3b82610b0d565b9150610d4683610b0d565b925082821015610d5957610d58610c9f565b5b828203905092915050565b6000610d6f82610b0d565b9150610d7a83610b0d565b9250827fffffffffffffffffffffffffffffffffffffffffffffffffffffffffffffffff03821115610daf57610dae610c9f565b5b828201905092915050565b6000610dc582610b0d565b91507fffffffffffffffffffffffffffffffffffffffffffffffffffffffffffffffff8203610df757610df6610c9f565b5b60018201905091905056fea2646970667358221220759a0fe080d05ec2718babe8d7dd37497673661f570bc7eed14839569c11d6ed64736f6c634300080d0033",
  "immutableReferences": {},
  "source": "pragma solidity ^0.8.0;\r\n\r\ncontract GroupManager {\r\n    mapping(address=>uint32[10]) private addressToGroup; //    \r\n    mapping(uint32=>address[10]) private groupToMembers; //    \r\n    mapping(uint32=>uint) private groupToBalance; // () \r\n    address private owner; //  \r\n    uint32 private groupCount = 1; //   \r\n\r\n    event outOfLimit(); //      \r\n\r\n    constructor() {\r\n        owner = msg.sender;\r\n    }\r\n\r\n    modifier ownerOnly {\r\n        require(msg.sender == owner);\r\n        _;\r\n    }\r\n\r\n    function createGroup() public returns (uint32) {\r\n        uint8 index = 0;\r\n\r\n        //      \r\n        for (uint8 i=0; i<10; i++){\r\n            if (addressToGroup[msg.sender][i] == 0) break;\r\n            index++;\r\n        }\r\n\r\n        //   (10)    outOfLimit  \r\n        if(index==10) {\r\n            emit outOfLimit();\r\n            return 0;\r\n        }\r\n\r\n        //      (   )\r\n        addressToGroup[msg.sender][index] = groupCount;\r\n        //      msg.sender \r\n        groupToMembers[groupCount][0] = msg.sender;\r\n        return groupCount++;\r\n    }\r\n\r\n    function deposit(uint32 groupID) payable public {\r\n        require(msg.value > 0);\r\n        groupToBalance[groupID] += msg.value;\r\n    }\r\n\r\n    function withdraw(uint32 groupID) payable public returns(uint balance){\r\n        require(groupToBalance[groupID] >= msg.value);\r\n        require(tx.origin == msg.sender);\r\n        groupToBalance[groupID] -= msg.value;\r\n        payable(msg.sender).transfer(msg.value);\r\n        return groupToBalance[groupID];\r\n    }\r\n\r\n    function joinGroup(uint32 groupID) public returns(bool) {\r\n        //       \r\n        uint8 senderGroupCount = canJoinOtherGroup();\r\n\r\n        //         ,    false \r\n        if(senderGroupCount == 10) {\r\n            emit outOfLimit();\r\n            return false;\r\n        }\r\n\r\n        //     \r\n        uint8 seat = 0;\r\n        for(uint i=0; i<10; i++){\r\n            if(groupToMembers[groupID][i] == address(0)) break;\r\n            seat++;\r\n        }\r\n\r\n        //      false \r\n        if(seat==10) {\r\n            emit outOfLimit();\r\n            return false;\r\n        }\r\n\r\n        //   msg.sender   msg.sender   \r\n        groupToMembers[groupID][seat] = msg.sender;\r\n        addressToGroup[msg.sender][senderGroupCount] = groupID;\r\n        return true;\r\n    }\r\n\r\n    function canJoinOtherGroup() private returns(uint8){\r\n        uint8 index = 0;\r\n\r\n        //       \r\n        for (uint8 i=0; i<10; i++){\r\n            if (addressToGroup[msg.sender][i] == 0) break;\r\n            index++;\r\n        }\r\n\r\n        return index;\r\n    }\r\n\r\n    function getGroupID() public view returns(uint32[10] memory groups) {\r\n        return addressToGroup[msg.sender];\r\n    }\r\n\r\n    function getGroupMembers(uint32 groupID) public view returns(address[10] memory members){\r\n        return groupToMembers[groupID];\r\n    }\r\n}",
  "sourcePath": "D:\\Node.js Workspace\\korean-fund-raising\\contracts\\GroupManager.sol",
  "compiler": {
    "name": "solc",
    "version": "0.8.13+commit.abaa5c0e.Emscripten.clang"
  },
  "schemaVersion": "3.4.7",
  "updatedAt": "2022-05-22T04:52:44.819Z",
  "networkType": "ethereum",
  "devdoc": {
    "kind": "dev",
    "methods": {},
    "version": 1
  },
  "userdoc": {
    "kind": "user",
    "methods": {},
    "version": 1
  }
}