{
  "contractName": "GroupManager",
  "abi": [
    {
      "inputs": [],
      "stateMutability": "nonpayable",
      "type": "constructor"
    },
    {
      "anonymous": false,
      "inputs": [],
      "name": "OutOfLimit",
      "type": "event"
    },
    {
      "inputs": [],
      "name": "createGroup",
      "outputs": [
        {
          "internalType": "uint32",
          "name": "groupID",
          "type": "uint32"
        }
      ],
      "stateMutability": "nonpayable",
      "type": "function"
    },
    {
      "inputs": [
        {
          "internalType": "uint32",
          "name": "groupID",
          "type": "uint32"
        },
        {
          "internalType": "uint256",
          "name": "amount",
          "type": "uint256"
        }
      ],
      "name": "deposit",
      "outputs": [],
      "stateMutability": "payable",
      "type": "function",
      "payable": true
    },
    {
      "inputs": [
        {
          "internalType": "uint32",
          "name": "groupID",
          "type": "uint32"
        },
        {
          "internalType": "uint256",
          "name": "amount",
          "type": "uint256"
        }
      ],
      "name": "withdraw",
      "outputs": [
        {
          "internalType": "uint256",
          "name": "balance",
          "type": "uint256"
        }
      ],
      "stateMutability": "payable",
      "type": "function",
      "payable": true
    },
    {
      "inputs": [],
      "name": "getGroupID",
      "outputs": [
        {
          "internalType": "uint32[10]",
          "name": "groups",
          "type": "uint32[10]"
        }
      ],
      "stateMutability": "view",
      "type": "function",
      "constant": true
    }
  ],
  "bytecode": "0x60806040526001600360146101000a81548163ffffffff021916908363ffffffff16021790555034801561003257600080fd5b5033600360006101000a81548173ffffffffffffffffffffffffffffffffffffffff021916908373ffffffffffffffffffffffffffffffffffffffff16021790555061082c806100836000396000f3fe60806040526004361061003f5760003560e01c80630e19dc3a14610044578063575185ed146100745780637062f1c91461009f578063aaf10398146100ca575b600080fd5b61005e60048036038101906100599190610551565b6100e6565b60405161006b91906105a0565b60405180910390f35b34801561008057600080fd5b506100896101f1565b60405161009691906105ca565b60405180910390f35b3480156100ab57600080fd5b506100b46103bd565b6040516100c19190610690565b60405180910390f35b6100e460048036038101906100df9190610551565b610470565b005b600081600260008563ffffffff1663ffffffff16815260200190815260200160002054101561011457600080fd5b3373ffffffffffffffffffffffffffffffffffffffff163273ffffffffffffffffffffffffffffffffffffffff161461014c57600080fd5b81600260008563ffffffff1663ffffffff168152602001908152602001600020600082825461017b91906106db565b925050819055503373ffffffffffffffffffffffffffffffffffffffff166108fc839081150290604051600060405180830381858888f193505050501580156101c8573d6000803e3d6000fd5b50600260008463ffffffff1663ffffffff16815260200190815260200160002054905092915050565b6000806000905060005b600a8160ff1610156102a55760008060003373ffffffffffffffffffffffffffffffffffffffff1673ffffffffffffffffffffffffffffffffffffffff1681526020019081526020016000208260ff16600a811061025c5761025b61070f565b5b600891828204019190066004029054906101000a900463ffffffff1663ffffffff1603156102a557818061028f9061074b565b925050808061029d9061074b565b9150506101fb565b50600a8160ff16036102e7577fbafb515045325c89a57d9656f4bb49b9a0c3e50714b9c6ee6fc76e7cd7e0fb1660405160405180910390a160009150506103ba565b600360149054906101000a900463ffffffff166000803373ffffffffffffffffffffffffffffffffffffffff1673ffffffffffffffffffffffffffffffffffffffff1681526020019081526020016000208260ff16600a811061034d5761034c61070f565b5b600891828204019190066004026101000a81548163ffffffff021916908363ffffffff1602179055506003601481819054906101000a900463ffffffff168092919061039890610774565b91906101000a81548163ffffffff021916908363ffffffff1602179055509150505b90565b6103c56104b7565b6000803373ffffffffffffffffffffffffffffffffffffffff1673ffffffffffffffffffffffffffffffffffffffff168152602001908152602001600020600a806020026040519081016040528092919082600a8015610466576020028201916000905b82829054906101000a900463ffffffff1663ffffffff16815260200190600401906020826003010492830192600103820291508084116104295790505b5050505050905090565b6000811161047d57600080fd5b80600260008463ffffffff1663ffffffff16815260200190815260200160002060008282546104ac91906107a0565b925050819055505050565b604051806101400160405280600a90602082028036833780820191505090505090565b600080fd5b600063ffffffff82169050919050565b6104f8816104df565b811461050357600080fd5b50565b600081359050610515816104ef565b92915050565b6000819050919050565b61052e8161051b565b811461053957600080fd5b50565b60008135905061054b81610525565b92915050565b60008060408385031215610568576105676104da565b5b600061057685828601610506565b92505060206105878582860161053c565b9150509250929050565b61059a8161051b565b82525050565b60006020820190506105b56000830184610591565b92915050565b6105c4816104df565b82525050565b60006020820190506105df60008301846105bb565b92915050565b6000600a9050919050565b600081905092915050565b6000819050919050565b61060e816104df565b82525050565b60006106208383610605565b60208301905092915050565b6000602082019050919050565b610642816105e5565b61064c81846105f0565b9250610657826105fb565b8060005b8381101561068857815161066f8782610614565b965061067a8361062c565b92505060018101905061065b565b505050505050565b6000610140820190506106a66000830184610639565b92915050565b7f4e487b7100000000000000000000000000000000000000000000000000000000600052601160045260246000fd5b60006106e68261051b565b91506106f18361051b565b925082821015610704576107036106ac565b5b828203905092915050565b7f4e487b7100000000000000000000000000000000000000000000000000000000600052603260045260246000fd5b600060ff82169050919050565b60006107568261073e565b915060ff8203610769576107686106ac565b5b600182019050919050565b600061077f826104df565b915063ffffffff8203610795576107946106ac565b5b600182019050919050565b60006107ab8261051b565b91506107b68361051b565b9250827fffffffffffffffffffffffffffffffffffffffffffffffffffffffffffffffff038211156107eb576107ea6106ac565b5b82820190509291505056fea2646970667358221220cb464a0a4191d6ab91321c5f3ab2ac247768620c72c3b3038ba9e992322f799664736f6c634300080d0033",
  "immutableReferences": {},
  "source": "pragma solidity ^0.8.0;\r\n\r\ncontract GroupManager {\r\n    mapping(address=>uint32[10]) private addressToGroup;\r\n    mapping(uint32=>address[10]) private groupToMembers;\r\n    mapping(uint32=>uint) private groupToBalance;\r\n    address private owner;\r\n    uint32 private groupCount = 1;\r\n\r\n    event OutOfLimit();\r\n\r\n    constructor() {\r\n        owner = msg.sender;\r\n    }\r\n\r\n    function createGroup() public returns (uint32 groupID) {\r\n        uint8 index = 0;\r\n        for (uint8 i=0; i<10; i++){\r\n            if (addressToGroup[msg.sender][i] == 0) break;\r\n            index++;\r\n        }\r\n        if(index==10) {\r\n            emit OutOfLimit();\r\n            return 0;\r\n        }\r\n        addressToGroup[msg.sender][index] = groupCount;\r\n        return groupCount++;\r\n    }\r\n\r\n    function deposit(uint32 groupID, uint amount) payable public {\r\n        require(amount > 0);\r\n        groupToBalance[groupID] += amount;\r\n    }\r\n\r\n    function withdraw(uint32 groupID, uint amount) payable public returns(uint balance){\r\n        require(groupToBalance[groupID] >= amount);\r\n        require(tx.origin == msg.sender);\r\n        groupToBalance[groupID] -= amount;\r\n        payable(msg.sender).transfer(amount);\r\n        return groupToBalance[groupID];\r\n    }\r\n\r\n    function getGroupID() public view returns(uint32[10] memory groups) {\r\n        return addressToGroup[msg.sender];\r\n    }\r\n}",
  "sourcePath": "D:\\Node.js Workspace\\korean-fund-raising\\contracts\\GroupManager.sol",
  "compiler": {
    "name": "solc",
    "version": "0.8.13+commit.abaa5c0e.Emscripten.clang"
  },
  "schemaVersion": "3.4.7",
  "updatedAt": "2022-05-18T06:41:24.693Z",
  "networkType": "ethereum",
  "devdoc": {
    "kind": "dev",
    "methods": {},
    "version": 1
  },
  "userdoc": {
    "kind": "user",
    "methods": {},
    "version": 1
  }
}