{
  "contractName": "GroupManager",
  "abi": [
    {
      "inputs": [],
      "stateMutability": "nonpayable",
      "type": "constructor"
    },
    {
      "anonymous": false,
      "inputs": [
        {
          "indexed": false,
          "internalType": "uint32",
          "name": "groupID",
          "type": "uint32"
        },
        {
          "indexed": false,
          "internalType": "address",
          "name": "from",
          "type": "address"
        }
      ],
      "name": "notMember",
      "type": "event"
    },
    {
      "anonymous": false,
      "inputs": [],
      "name": "outOfLimit",
      "type": "event"
    },
    {
      "inputs": [],
      "name": "createGroup",
      "outputs": [
        {
          "internalType": "uint32",
          "name": "",
          "type": "uint32"
        }
      ],
      "stateMutability": "nonpayable",
      "type": "function"
    },
    {
      "inputs": [
        {
          "internalType": "uint32",
          "name": "groupID",
          "type": "uint32"
        }
      ],
      "name": "deposit",
      "outputs": [],
      "stateMutability": "payable",
      "type": "function",
      "payable": true
    },
    {
      "inputs": [
        {
          "internalType": "uint32",
          "name": "groupID",
          "type": "uint32"
        }
      ],
      "name": "withdraw",
      "outputs": [
        {
          "internalType": "uint256",
          "name": "balance",
          "type": "uint256"
        }
      ],
      "stateMutability": "payable",
      "type": "function",
      "payable": true
    },
    {
      "inputs": [
        {
          "internalType": "uint32",
          "name": "groupID",
          "type": "uint32"
        }
      ],
      "name": "joinGroup",
      "outputs": [
        {
          "internalType": "bool",
          "name": "",
          "type": "bool"
        }
      ],
      "stateMutability": "nonpayable",
      "type": "function"
    },
    {
      "inputs": [],
      "name": "getGroupID",
      "outputs": [
        {
          "internalType": "uint32[10]",
          "name": "groups",
          "type": "uint32[10]"
        }
      ],
      "stateMutability": "view",
      "type": "function",
      "constant": true
    },
    {
      "inputs": [
        {
          "internalType": "uint32",
          "name": "groupID",
          "type": "uint32"
        }
      ],
      "name": "getGroupMembers",
      "outputs": [
        {
          "internalType": "address[10]",
          "name": "members",
          "type": "address[10]"
        }
      ],
      "stateMutability": "view",
      "type": "function",
      "constant": true
    }
  ],
  "bytecode": "0x60806040526001600360146101000a81548163ffffffff021916908363ffffffff16021790555034801561003257600080fd5b5033600360006101000a81548173ffffffffffffffffffffffffffffffffffffffff021916908373ffffffffffffffffffffffffffffffffffffffff160217905550610f26806100836000396000f3fe6080604052600436106100555760003560e01c8063575185ed1461005a5780637062f1c914610085578063aa9224cd146100b0578063b7e8bc99146100e0578063ec976a0a146100fc578063eec932f714610139575b600080fd5b34801561006657600080fd5b5061006f610176565b60405161007c9190610a83565b60405180910390f35b34801561009157600080fd5b5061009a6103b5565b6040516100a79190610b49565b60405180910390f35b6100ca60048036038101906100c59190610b96565b610468565b6040516100d79190610bdc565b60405180910390f35b6100fa60048036038101906100f59190610b96565b610660565b005b34801561010857600080fd5b50610123600480360381019061011e9190610b96565b6106a6565b6040516101309190610cd4565b60405180910390f35b34801561014557600080fd5b50610160600480360381019061015b9190610b96565b610746565b60405161016d9190610d0b565b60405180910390f35b600080600090505b600a8160ff16101561021a5760008060003373ffffffffffffffffffffffffffffffffffffffff1673ffffffffffffffffffffffffffffffffffffffff1681526020019081526020016000208260ff16600a81106101df576101de610d26565b5b600891828204019190066004029054906101000a900463ffffffff1663ffffffff16031561021a57808061021290610d91565b91505061017e565b600a8160ff160361025b577f2fc31b0c2f294ab6ff7c8d21231dd6c1cf332cfa560af4a81b55fb3922eef2c160405160405180910390a160009150506103b2565b600360149054906101000a900463ffffffff166000803373ffffffffffffffffffffffffffffffffffffffff1673ffffffffffffffffffffffffffffffffffffffff1681526020019081526020016000208260ff16600a81106102c1576102c0610d26565b5b600891828204019190066004026101000a81548163ffffffff021916908363ffffffff1602179055503360016000600360149054906101000a900463ffffffff1663ffffffff1663ffffffff1681526020019081526020016000206000600a811061032f5761032e610d26565b5b0160006101000a81548173ffffffffffffffffffffffffffffffffffffffff021916908373ffffffffffffffffffffffffffffffffffffffff1602179055506003601481819054906101000a900463ffffffff168092919061039090610dba565b91906101000a81548163ffffffff021916908363ffffffff1602179055509150505b90565b6103bd610a1e565b6000803373ffffffffffffffffffffffffffffffffffffffff1673ffffffffffffffffffffffffffffffffffffffff168152602001908152602001600020600a806020026040519081016040528092919082600a801561045e576020028201916000905b82829054906101000a900463ffffffff1663ffffffff16815260200190600401906020826003010492830192600103820291508084116104215790505b5050505050905090565b600034600260008463ffffffff1663ffffffff16815260200190815260200160002054101561049657600080fd5b3373ffffffffffffffffffffffffffffffffffffffff163273ffffffffffffffffffffffffffffffffffffffff16146104ce57600080fd5b60005b600a8160ff161015610572578263ffffffff166000803373ffffffffffffffffffffffffffffffffffffffff1673ffffffffffffffffffffffffffffffffffffffff1681526020019081526020016000208260ff16600a811061053757610536610d26565b5b600891828204019190066004029054906101000a900463ffffffff1663ffffffff16031561057257808061056a90610d91565b9150506104d1565b600a8160ff16036105bb577fe56238e5a676b3faf5d6ffafdc64077d7ac7d29f7e8eafda690dcb69924638cd83336040516105ae929190610df5565b60405180910390a1600080fd5b34600260008563ffffffff1663ffffffff16815260200190815260200160002060008282546105ea9190610e1e565b925050819055503373ffffffffffffffffffffffffffffffffffffffff166108fc349081150290604051600060405180830381858888f19350505050158015610637573d6000803e3d6000fd5b50600260008463ffffffff1663ffffffff16815260200190815260200160002054915050919050565b6000341161066d57600080fd5b34600260008363ffffffff1663ffffffff168152602001908152602001600020600082825461069c9190610e52565b9250508190555050565b6106ae610a41565b600160008363ffffffff1663ffffffff168152602001908152602001600020600a806020026040519081016040528092919082600a801561073a576020028201915b8160009054906101000a900473ffffffffffffffffffffffffffffffffffffffff1673ffffffffffffffffffffffffffffffffffffffff16815260200190600101908083116106f0575b50505050509050919050565b600080610751610973565b9050600a8160ff1603610794577f2fc31b0c2f294ab6ff7c8d21231dd6c1cf332cfa560af4a81b55fb3922eef2c160405160405180910390a1600091505061096e565b60005b600a81101561083a57600073ffffffffffffffffffffffffffffffffffffffff16600160008663ffffffff1663ffffffff16815260200190815260200160002082600a81106107e9576107e8610d26565b5b0160009054906101000a900473ffffffffffffffffffffffffffffffffffffffff1673ffffffffffffffffffffffffffffffffffffffff16031561083a57808061083290610ea8565b915050610797565b600a8103610879577f2fc31b0c2f294ab6ff7c8d21231dd6c1cf332cfa560af4a81b55fb3922eef2c160405160405180910390a160009250505061096e565b33600160008663ffffffff1663ffffffff16815260200190815260200160002082600a81106108ab576108aa610d26565b5b0160006101000a81548173ffffffffffffffffffffffffffffffffffffffff021916908373ffffffffffffffffffffffffffffffffffffffff160217905550836000803373ffffffffffffffffffffffffffffffffffffffff1673ffffffffffffffffffffffffffffffffffffffff1681526020019081526020016000208360ff16600a811061093e5761093d610d26565b5b600891828204019190066004026101000a81548163ffffffff021916908363ffffffff1602179055506001925050505b919050565b600080600090505b600a8160ff161015610a175760008060003373ffffffffffffffffffffffffffffffffffffffff1673ffffffffffffffffffffffffffffffffffffffff1681526020019081526020016000208260ff16600a81106109dc576109db610d26565b5b600891828204019190066004029054906101000a900463ffffffff1663ffffffff160315610a17578080610a0f90610d91565b91505061097b565b8091505090565b604051806101400160405280600a90602082028036833780820191505090505090565b604051806101400160405280600a90602082028036833780820191505090505090565b600063ffffffff82169050919050565b610a7d81610a64565b82525050565b6000602082019050610a986000830184610a74565b92915050565b6000600a9050919050565b600081905092915050565b6000819050919050565b610ac781610a64565b82525050565b6000610ad98383610abe565b60208301905092915050565b6000602082019050919050565b610afb81610a9e565b610b058184610aa9565b9250610b1082610ab4565b8060005b83811015610b41578151610b288782610acd565b9650610b3383610ae5565b925050600181019050610b14565b505050505050565b600061014082019050610b5f6000830184610af2565b92915050565b600080fd5b610b7381610a64565b8114610b7e57600080fd5b50565b600081359050610b9081610b6a565b92915050565b600060208284031215610bac57610bab610b65565b5b6000610bba84828501610b81565b91505092915050565b6000819050919050565b610bd681610bc3565b82525050565b6000602082019050610bf16000830184610bcd565b92915050565b6000600a9050919050565b600081905092915050565b6000819050919050565b600073ffffffffffffffffffffffffffffffffffffffff82169050919050565b6000610c4282610c17565b9050919050565b610c5281610c37565b82525050565b6000610c648383610c49565b60208301905092915050565b6000602082019050919050565b610c8681610bf7565b610c908184610c02565b9250610c9b82610c0d565b8060005b83811015610ccc578151610cb38782610c58565b9650610cbe83610c70565b925050600181019050610c9f565b505050505050565b600061014082019050610cea6000830184610c7d565b92915050565b60008115159050919050565b610d0581610cf0565b82525050565b6000602082019050610d206000830184610cfc565b92915050565b7f4e487b7100000000000000000000000000000000000000000000000000000000600052603260045260246000fd5b7f4e487b7100000000000000000000000000000000000000000000000000000000600052601160045260246000fd5b600060ff82169050919050565b6000610d9c82610d84565b915060ff8203610daf57610dae610d55565b5b600182019050919050565b6000610dc582610a64565b915063ffffffff8203610ddb57610dda610d55565b5b600182019050919050565b610def81610c37565b82525050565b6000604082019050610e0a6000830185610a74565b610e176020830184610de6565b9392505050565b6000610e2982610bc3565b9150610e3483610bc3565b925082821015610e4757610e46610d55565b5b828203905092915050565b6000610e5d82610bc3565b9150610e6883610bc3565b9250827fffffffffffffffffffffffffffffffffffffffffffffffffffffffffffffffff03821115610e9d57610e9c610d55565b5b828201905092915050565b6000610eb382610bc3565b91507fffffffffffffffffffffffffffffffffffffffffffffffffffffffffffffffff8203610ee557610ee4610d55565b5b60018201905091905056fea264697066735822122067f9bf1fbcc5571588b3622d87dda9ffc74e19a1d67c38a4111bb0c878a2c5b764736f6c634300080d0033",
  "immutableReferences": {},
  "source": "pragma solidity ^0.8.0;\n\ncontract GroupManager {\n    mapping(address=>uint32[10]) private addressToGroup; //    \n    mapping(uint32=>address[10]) private groupToMembers; //    \n    mapping(uint32=>uint) private groupToBalance; // () \n    address private owner; //  \n    uint32 private groupCount = 1; //   \n\n    event outOfLimit(); //      \n    event notMember(uint32 groupID, address from);\n\n    constructor() {\n        owner = msg.sender;\n    }\n\n    modifier ownerOnly {\n        require(msg.sender == owner);\n        _;\n    }\n\n    function createGroup() public returns (uint32) {\n        uint8 i;\n\n        //      \n        for (i=0; i<10; i++){\n            if (addressToGroup[msg.sender][i] == 0) break;\n        }\n\n        //   (10)    outOfLimit  \n        if(i==10) {\n            emit outOfLimit();\n            return 0;\n        }\n\n        //      (   )\n        addressToGroup[msg.sender][i] = groupCount;\n        //      msg.sender \n        groupToMembers[groupCount][0] = msg.sender;\n        return groupCount++;\n    }\n\n    function deposit(uint32 groupID) payable public {\n        require(msg.value > 0);\n        groupToBalance[groupID] += msg.value;\n    }\n\n    function withdraw(uint32 groupID) payable public returns(uint balance){\n        //   \n        require(groupToBalance[groupID] >= msg.value);\n        //     \n        require(tx.origin == msg.sender);\n        // msg.sender   \n        uint8 i;\n        for (i=0; i<10; i++){\n            if(addressToGroup[msg.sender][i] == groupID) break;\n        }\n        //    ,  revert\n        if (i==10){\n            emit notMember(groupID, msg.sender);\n            revert();\n        }\n        //   msg.value  \n        groupToBalance[groupID] -= msg.value;\n        // msg.sender msv.value  \n        payable(msg.sender).transfer(msg.value);\n        return groupToBalance[groupID];\n    }\n\n    function joinGroup(uint32 groupID) public returns(bool) {\n        //       \n        uint8 senderGroupCount = canJoinOtherGroup();\n\n        //         ,    false \n        if(senderGroupCount == 10) {\n            emit outOfLimit();\n            return false;\n        }\n\n        //     \n        uint i;\n        for(i=0; i<10; i++){\n            if(groupToMembers[groupID][i] == address(0)) break;\n        }\n\n        //      false \n        if(i==10) {\n            emit outOfLimit();\n            return false;\n        }\n\n        //   msg.sender   msg.sender   \n        groupToMembers[groupID][i] = msg.sender;\n        addressToGroup[msg.sender][senderGroupCount] = groupID;\n        return true;\n    }\n\n    function canJoinOtherGroup() private returns(uint8){\n        uint8 i;\n\n        //       \n        for (i=0; i<10; i++){\n            if (addressToGroup[msg.sender][i] == 0) break;\n        }\n\n        return i;\n    }\n\n    function getGroupID() public view returns(uint32[10] memory groups) {\n        return addressToGroup[msg.sender];\n    }\n\n    function getGroupMembers(uint32 groupID) public view returns(address[10] memory members){\n        return groupToMembers[groupID];\n    }\n}",
  "sourcePath": "C:\\Users\\\\OneDrive\\\\GitHub\\korean-fund-raising\\contracts\\GroupManager.sol",
  "compiler": {
    "name": "solc",
    "version": "0.8.13+commit.abaa5c0e.Emscripten.clang"
  },
  "schemaVersion": "3.4.7",
  "updatedAt": "2022-05-22T06:46:44.258Z",
  "networkType": "ethereum",
  "devdoc": {
    "kind": "dev",
    "methods": {},
    "version": 1
  },
  "userdoc": {
    "kind": "user",
    "methods": {},
    "version": 1
  }
}